{
  "contractName": "Router",
  "abi": [
    {
      "inputs": [
        {
          "internalType": "address",
          "name": "tokenA",
          "type": "address"
        },
        {
          "internalType": "address",
          "name": "tokenB",
          "type": "address"
        },
        {
          "internalType": "uint256",
          "name": "amountADesired",
          "type": "uint256"
        },
        {
          "internalType": "uint256",
          "name": "amountBDesired",
          "type": "uint256"
        },
        {
          "internalType": "uint256",
          "name": "amountAMin",
          "type": "uint256"
        },
        {
          "internalType": "uint256",
          "name": "amountBMin",
          "type": "uint256"
        },
        {
          "internalType": "address",
          "name": "to",
          "type": "address"
        },
        {
          "internalType": "uint256",
          "name": "deadline",
          "type": "uint256"
        }
      ],
      "name": "addLiquidity",
      "outputs": [
        {
          "internalType": "uint256",
          "name": "amountA",
          "type": "uint256"
        },
        {
          "internalType": "uint256",
          "name": "amountB",
          "type": "uint256"
        },
        {
          "internalType": "uint256",
          "name": "liquidity",
          "type": "uint256"
        }
      ],
      "stateMutability": "nonpayable",
      "type": "function"
    }
  ],
  "bytecode": "0x608060405234801561001057600080fd5b50610237806100206000396000f3fe608060405234801561001057600080fd5b506004361061002b5760003560e01c8063e8e3370014610030575b600080fd5b61004a6004803603810190610045919061009f565b610062565b60405161005993929190610160565b60405180910390f35b6000806000985098509895505050505050565b600081359050610084816101d3565b92915050565b600081359050610099816101ea565b92915050565b600080600080600080600080610100898b0312156100bc57600080fd5b60006100ca8b828c01610075565b98505060206100db8b828c01610075565b97505060406100ec8b828c0161008a565b96505060606100fd8b828c0161008a565b955050608061010e8b828c0161008a565b94505060a061011f8b828c0161008a565b93505060c06101308b828c01610075565b92505060e06101418b828c0161008a565b9150509295985092959890939650565b61015a816101c9565b82525050565b60006060820190506101756000830186610151565b6101826020830185610151565b61018f6040830184610151565b949350505050565b60006101a2826101a9565b9050919050565b600073ffffffffffffffffffffffffffffffffffffffff82169050919050565b6000819050919050565b6101dc81610197565b81146101e757600080fd5b50565b6101f3816101c9565b81146101fe57600080fd5b5056fea26469706673582212206e3913aa2f89f101469d77942f48de2b85a5ad77f70242a98c133091f3ed733f64736f6c63430008000033",
  "immutableReferences": {},
  "source": "pragma solidity ^0.8.0;\n\ncontract Router {\n  function addLiquidity(\n   address tokenA,\n   address tokenB,\n   uint amountADesired,\n   uint amountBDesired,\n   uint amountAMin,\n   uint amountBMin,\n   address to,\n   uint deadline\n  ) external returns(uint amountA, uint amountB, uint liquidity) {}\n}\n",
  "sourcePath": "/home/worker/swapper/pancakeswapTestnet/contracts/Router.sol",
  "compiler": {
    "name": "solc",
    "version": "0.8.0+commit.c7dfd78e.Emscripten.clang"
  },
  "schemaVersion": "3.4.2",
  "updatedAt": "2021-08-13T05:56:32.434Z",
  "devdoc": {
    "kind": "dev",
    "methods": {},
    "version": 1
  },
  "userdoc": {
    "kind": "user",
    "methods": {},
    "version": 1
  }
}