{
  "contractName": "Token1",
  "abi": [
    {
      "anonymous": false,
      "inputs": [
        {
          "indexed": true,
          "internalType": "address",
          "name": "src",
          "type": "address"
        },
        {
          "indexed": true,
          "internalType": "address",
          "name": "guy",
          "type": "address"
        },
        {
          "indexed": false,
          "internalType": "uint256",
          "name": "wad",
          "type": "uint256"
        }
      ],
      "name": "Approval",
      "type": "event"
    },
    {
      "anonymous": false,
      "inputs": [
        {
          "indexed": true,
          "internalType": "address",
          "name": "dst",
          "type": "address"
        },
        {
          "indexed": false,
          "internalType": "uint256",
          "name": "wad",
          "type": "uint256"
        }
      ],
      "name": "Deposit",
      "type": "event"
    },
    {
      "anonymous": false,
      "inputs": [
        {
          "indexed": true,
          "internalType": "address",
          "name": "src",
          "type": "address"
        },
        {
          "indexed": true,
          "internalType": "address",
          "name": "dst",
          "type": "address"
        },
        {
          "indexed": false,
          "internalType": "uint256",
          "name": "wad",
          "type": "uint256"
        }
      ],
      "name": "Transfer",
      "type": "event"
    },
    {
      "anonymous": false,
      "inputs": [
        {
          "indexed": true,
          "internalType": "address",
          "name": "src",
          "type": "address"
        },
        {
          "indexed": false,
          "internalType": "uint256",
          "name": "wad",
          "type": "uint256"
        }
      ],
      "name": "Withdrawal",
      "type": "event"
    },
    {
      "inputs": [
        {
          "internalType": "address",
          "name": "",
          "type": "address"
        },
        {
          "internalType": "address",
          "name": "",
          "type": "address"
        }
      ],
      "name": "allowance",
      "outputs": [
        {
          "internalType": "uint256",
          "name": "",
          "type": "uint256"
        }
      ],
      "stateMutability": "view",
      "type": "function"
    },
    {
      "inputs": [
        {
          "internalType": "address",
          "name": "",
          "type": "address"
        }
      ],
      "name": "balanceOf",
      "outputs": [
        {
          "internalType": "uint256",
          "name": "",
          "type": "uint256"
        }
      ],
      "stateMutability": "view",
      "type": "function"
    },
    {
      "inputs": [],
      "name": "decimals",
      "outputs": [
        {
          "internalType": "uint8",
          "name": "",
          "type": "uint8"
        }
      ],
      "stateMutability": "view",
      "type": "function"
    },
    {
      "inputs": [],
      "name": "name",
      "outputs": [
        {
          "internalType": "string",
          "name": "",
          "type": "string"
        }
      ],
      "stateMutability": "view",
      "type": "function"
    },
    {
      "inputs": [],
      "name": "symbol",
      "outputs": [
        {
          "internalType": "string",
          "name": "",
          "type": "string"
        }
      ],
      "stateMutability": "view",
      "type": "function"
    },
    {
      "stateMutability": "payable",
      "type": "receive"
    },
    {
      "inputs": [],
      "name": "deposit",
      "outputs": [],
      "stateMutability": "payable",
      "type": "function"
    },
    {
      "inputs": [
        {
          "internalType": "uint256",
          "name": "wad",
          "type": "uint256"
        }
      ],
      "name": "withdraw",
      "outputs": [],
      "stateMutability": "payable",
      "type": "function"
    },
    {
      "inputs": [
        {
          "internalType": "address",
          "name": "guy",
          "type": "address"
        },
        {
          "internalType": "uint256",
          "name": "wad",
          "type": "uint256"
        }
      ],
      "name": "approve",
      "outputs": [
        {
          "internalType": "bool",
          "name": "",
          "type": "bool"
        }
      ],
      "stateMutability": "nonpayable",
      "type": "function"
    },
    {
      "inputs": [
        {
          "internalType": "address",
          "name": "dst",
          "type": "address"
        },
        {
          "internalType": "uint256",
          "name": "wad",
          "type": "uint256"
        }
      ],
      "name": "transfer",
      "outputs": [
        {
          "internalType": "bool",
          "name": "",
          "type": "bool"
        }
      ],
      "stateMutability": "nonpayable",
      "type": "function"
    },
    {
      "inputs": [
        {
          "internalType": "address",
          "name": "src",
          "type": "address"
        },
        {
          "internalType": "address",
          "name": "dst",
          "type": "address"
        },
        {
          "internalType": "uint256",
          "name": "wad",
          "type": "uint256"
        }
      ],
      "name": "transferFrom",
      "outputs": [
        {
          "internalType": "bool",
          "name": "",
          "type": "bool"
        }
      ],
      "stateMutability": "nonpayable",
      "type": "function"
    }
  ],
  "bytecode": "0x60806040526040518060400160405280600b81526020017f5772617070656420424e420000000000000000000000000000000000000000008152506000908051906020019062000051929190620000d0565b506040518060400160405280600481526020017f57424e4200000000000000000000000000000000000000000000000000000000815250600190805190602001906200009f929190620000d0565b506012600260006101000a81548160ff021916908360ff160217905550348015620000c957600080fd5b50620001e5565b828054620000de9062000180565b90600052602060002090601f0160209004810192826200010257600085556200014e565b82601f106200011d57805160ff19168380011785556200014e565b828001600101855582156200014e579182015b828111156200014d57825182559160200191906001019062000130565b5b5090506200015d919062000161565b5090565b5b808211156200017c57600081600090555060010162000162565b5090565b600060028204905060018216806200019957607f821691505b60208210811415620001b057620001af620001b6565b5b50919050565b7f4e487b7100000000000000000000000000000000000000000000000000000000600052602260045260246000fd5b610dd380620001f56000396000f3fe6080604052600436106100955760003560e01c806370a082311161005957806370a082311461019557806395d89b41146101d2578063a9059cbb146101fd578063d0e30db01461023a578063dd62ed3e14610244576100a4565b806306fdde03146100a9578063095ea7b3146100d457806323b872dd146101115780632e1a7d4d1461014e578063313ce5671461016a576100a4565b366100a4576100a2610281565b005b600080fd5b3480156100b557600080fd5b506100be610327565b6040516100cb9190610b48565b60405180910390f35b3480156100e057600080fd5b506100fb60048036038101906100f69190610a62565b6103b5565b6040516101089190610b2d565b60405180910390f35b34801561011d57600080fd5b5061013860048036038101906101339190610a13565b6104a7565b6040516101459190610b2d565b60405180910390f35b61016860048036038101906101639190610a9e565b6107ec565b005b34801561017657600080fd5b5061017f610891565b60405161018c9190610b85565b60405180910390f35b3480156101a157600080fd5b506101bc60048036038101906101b791906109ae565b6108a4565b6040516101c99190610b6a565b60405180910390f35b3480156101de57600080fd5b506101e76108bc565b6040516101f49190610b48565b60405180910390f35b34801561020957600080fd5b50610224600480360381019061021f9190610a62565b61094a565b6040516102319190610b2d565b60405180910390f35b610242610281565b005b34801561025057600080fd5b5061026b600480360381019061026691906109d7565b61095f565b6040516102789190610b6a565b60405180910390f35b34600360003373ffffffffffffffffffffffffffffffffffffffff1673ffffffffffffffffffffffffffffffffffffffff16815260200190815260200160002060008282546102d09190610bbc565b925050819055503373ffffffffffffffffffffffffffffffffffffffff167fe1fffcc4923d04b559f4d29a8bfc6cda04eb5b0d3c460751c2402c5c5cc9109c3460405161031d9190610b6a565b60405180910390a2565b6000805461033490610cce565b80601f016020809104026020016040519081016040528092919081815260200182805461036090610cce565b80156103ad5780601f10610382576101008083540402835291602001916103ad565b820191906000526020600020905b81548152906001019060200180831161039057829003601f168201915b505050505081565b600081600460003373ffffffffffffffffffffffffffffffffffffffff1673ffffffffffffffffffffffffffffffffffffffff16815260200190815260200160002060008573ffffffffffffffffffffffffffffffffffffffff1673ffffffffffffffffffffffffffffffffffffffff168152602001908152602001600020819055508273ffffffffffffffffffffffffffffffffffffffff163373ffffffffffffffffffffffffffffffffffffffff167f8c5be1e5ebec7d5bd14f71427d1e84f3dd0314c0f7b2291e5b200ac8c7c3b925846040516104959190610b6a565b60405180910390a36001905092915050565b600081600360008673ffffffffffffffffffffffffffffffffffffffff1673ffffffffffffffffffffffffffffffffffffffff1681526020019081526020016000205410156104f557600080fd5b3373ffffffffffffffffffffffffffffffffffffffff168473ffffffffffffffffffffffffffffffffffffffff16141580156105ae57506000600460008673ffffffffffffffffffffffffffffffffffffffff1673ffffffffffffffffffffffffffffffffffffffff16815260200190815260200160002060003373ffffffffffffffffffffffffffffffffffffffff1673ffffffffffffffffffffffffffffffffffffffff1681526020019081526020016000205414155b156106d05781600460008673ffffffffffffffffffffffffffffffffffffffff1673ffffffffffffffffffffffffffffffffffffffff16815260200190815260200160002060003373ffffffffffffffffffffffffffffffffffffffff1673ffffffffffffffffffffffffffffffffffffffff16815260200190815260200160002054101561063c57600080fd5b81600460008673ffffffffffffffffffffffffffffffffffffffff1673ffffffffffffffffffffffffffffffffffffffff16815260200190815260200160002060003373ffffffffffffffffffffffffffffffffffffffff1673ffffffffffffffffffffffffffffffffffffffff16815260200190815260200160002060008282546106c89190610c12565b925050819055505b81600360008673ffffffffffffffffffffffffffffffffffffffff1673ffffffffffffffffffffffffffffffffffffffff168152602001908152602001600020600082825461071f9190610c12565b9250508190555081600360008573ffffffffffffffffffffffffffffffffffffffff1673ffffffffffffffffffffffffffffffffffffffff16815260200190815260200160002060008282546107759190610bbc565b925050819055508273ffffffffffffffffffffffffffffffffffffffff168473ffffffffffffffffffffffffffffffffffffffff167fddf252ad1be2c89b69c2b068fc378daa952ba7f163c4a11628f55a4df523b3ef846040516107d99190610b6a565b60405180910390a3600190509392505050565b80600360003373ffffffffffffffffffffffffffffffffffffffff1673ffffffffffffffffffffffffffffffffffffffff16815260200190815260200160002054101561083857600080fd5b80600360003373ffffffffffffffffffffffffffffffffffffffff1673ffffffffffffffffffffffffffffffffffffffff16815260200190815260200160002060008282546108879190610c12565b9250508190555050565b600260009054906101000a900460ff1681565b60036020528060005260406000206000915090505481565b600180546108c990610cce565b80601f01602080910402602001604051908101604052809291908181526020018280546108f590610cce565b80156109425780601f1061091757610100808354040283529160200191610942565b820191906000526020600020905b81548152906001019060200180831161092557829003601f168201915b505050505081565b60006109573384846104a7565b905092915050565b6004602052816000526040600020602052806000526040600020600091509150505481565b60008135905061099381610d6f565b92915050565b6000813590506109a881610d86565b92915050565b6000602082840312156109c057600080fd5b60006109ce84828501610984565b91505092915050565b600080604083850312156109ea57600080fd5b60006109f885828601610984565b9250506020610a0985828601610984565b9150509250929050565b600080600060608486031215610a2857600080fd5b6000610a3686828701610984565b9350506020610a4786828701610984565b9250506040610a5886828701610999565b9150509250925092565b60008060408385031215610a7557600080fd5b6000610a8385828601610984565b9250506020610a9485828601610999565b9150509250929050565b600060208284031215610ab057600080fd5b6000610abe84828501610999565b91505092915050565b610ad081610c58565b82525050565b6000610ae182610ba0565b610aeb8185610bab565b9350610afb818560208601610c9b565b610b0481610d5e565b840191505092915050565b610b1881610c84565b82525050565b610b2781610c8e565b82525050565b6000602082019050610b426000830184610ac7565b92915050565b60006020820190508181036000830152610b628184610ad6565b905092915050565b6000602082019050610b7f6000830184610b0f565b92915050565b6000602082019050610b9a6000830184610b1e565b92915050565b600081519050919050565b600082825260208201905092915050565b6000610bc782610c84565b9150610bd283610c84565b9250827fffffffffffffffffffffffffffffffffffffffffffffffffffffffffffffffff03821115610c0757610c06610d00565b5b828201905092915050565b6000610c1d82610c84565b9150610c2883610c84565b925082821015610c3b57610c3a610d00565b5b828203905092915050565b6000610c5182610c64565b9050919050565b60008115159050919050565b600073ffffffffffffffffffffffffffffffffffffffff82169050919050565b6000819050919050565b600060ff82169050919050565b60005b83811015610cb9578082015181840152602081019050610c9e565b83811115610cc8576000848401525b50505050565b60006002820490506001821680610ce657607f821691505b60208210811415610cfa57610cf9610d2f565b5b50919050565b7f4e487b7100000000000000000000000000000000000000000000000000000000600052601160045260246000fd5b7f4e487b7100000000000000000000000000000000000000000000000000000000600052602260045260246000fd5b6000601f19601f8301169050919050565b610d7881610c46565b8114610d8357600080fd5b50565b610d8f81610c84565b8114610d9a57600080fd5b5056fea2646970667358221220d458083b9e4e9271c9cff2457d05eaf3d1ddfec6966317008c12e1812a46d2c564736f6c63430008000033",
  "immutableReferences": {},
  "source": "/**\n *Submitted for verification at BscScan.com on 2020-09-03\n*/\n\n/**\n *Submitted for verification at Bscscan.com on 2020-09-03\n*/\n\npragma solidity ^0.8.0;\n\ncontract Token1 {\n    string public name     = \"Wrapped BNB\";\n    string public symbol   = \"WBNB\";\n    uint8  public decimals = 18;\n\n    event  Approval(address indexed src, address indexed guy, uint wad);\n    event  Transfer(address indexed src, address indexed dst, uint wad);\n    event  Deposit(address indexed dst, uint wad);\n    event  Withdrawal(address indexed src, uint wad);\n\n    mapping (address => uint)                       public  balanceOf;\n    mapping (address => mapping (address => uint))  public  allowance;\n\n    receive() external payable {\n        deposit();\n    }\n    function deposit() public payable {\n        balanceOf[msg.sender] += msg.value;\n        emit Deposit(msg.sender, msg.value);\n    }\n    function withdraw(uint wad) public payable {\n        require(balanceOf[msg.sender] >= wad);\n        balanceOf[msg.sender] -= wad;\n    }\n\n    function approve(address guy, uint wad) public returns (bool) {\n        allowance[msg.sender][guy] = wad;\n        emit Approval(msg.sender, guy, wad);\n        return true;\n    }\n\n    function transfer(address dst, uint wad) public returns (bool) {\n        return transferFrom(msg.sender, dst, wad);\n    }\n\n    function transferFrom(address src, address dst, uint wad)\n    public\n    returns (bool)\n    {\n        require(balanceOf[src] >= wad);\n\n        if (src != msg.sender && allowance[src][msg.sender] != 0) {\n            require(allowance[src][msg.sender] >= wad);\n            allowance[src][msg.sender] -= wad;\n        }\n\n        balanceOf[src] -= wad;\n        balanceOf[dst] += wad;\n\n        emit Transfer(src, dst, wad);\n\n        return true;\n    }\n\n}\n",
  "sourcePath": "/home/worker/swapper/pancakeswapTestnet/contracts/Token1.sol",
  "compiler": {
    "name": "solc",
    "version": "0.8.0+commit.c7dfd78e.Emscripten.clang"
  },
  "schemaVersion": "3.4.2",
  "updatedAt": "2021-08-13T05:56:32.440Z",
  "devdoc": {
    "kind": "dev",
    "methods": {},
    "version": 1
  },
  "userdoc": {
    "kind": "user",
    "methods": {},
    "version": 1
  }
}