{
  "contractName": "WBNB",
  "abi": [
    {
      "anonymous": false,
      "inputs": [
        {
          "indexed": true,
          "internalType": "address",
          "name": "src",
          "type": "address"
        },
        {
          "indexed": true,
          "internalType": "address",
          "name": "guy",
          "type": "address"
        },
        {
          "indexed": false,
          "internalType": "uint256",
          "name": "wad",
          "type": "uint256"
        }
      ],
      "name": "Approval",
      "type": "event"
    },
    {
      "anonymous": false,
      "inputs": [
        {
          "indexed": true,
          "internalType": "address",
          "name": "dst",
          "type": "address"
        },
        {
          "indexed": false,
          "internalType": "uint256",
          "name": "wad",
          "type": "uint256"
        }
      ],
      "name": "Deposit",
      "type": "event"
    },
    {
      "anonymous": false,
      "inputs": [
        {
          "indexed": true,
          "internalType": "address",
          "name": "src",
          "type": "address"
        },
        {
          "indexed": true,
          "internalType": "address",
          "name": "dst",
          "type": "address"
        },
        {
          "indexed": false,
          "internalType": "uint256",
          "name": "wad",
          "type": "uint256"
        }
      ],
      "name": "Transfer",
      "type": "event"
    },
    {
      "anonymous": false,
      "inputs": [
        {
          "indexed": true,
          "internalType": "address",
          "name": "src",
          "type": "address"
        },
        {
          "indexed": false,
          "internalType": "uint256",
          "name": "wad",
          "type": "uint256"
        }
      ],
      "name": "Withdrawal",
      "type": "event"
    },
    {
      "inputs": [
        {
          "internalType": "address",
          "name": "",
          "type": "address"
        },
        {
          "internalType": "address",
          "name": "",
          "type": "address"
        }
      ],
      "name": "allowance",
      "outputs": [
        {
          "internalType": "uint256",
          "name": "",
          "type": "uint256"
        }
      ],
      "stateMutability": "view",
      "type": "function"
    },
    {
      "inputs": [
        {
          "internalType": "address",
          "name": "",
          "type": "address"
        }
      ],
      "name": "balanceOf",
      "outputs": [
        {
          "internalType": "uint256",
          "name": "",
          "type": "uint256"
        }
      ],
      "stateMutability": "view",
      "type": "function"
    },
    {
      "inputs": [],
      "name": "decimals",
      "outputs": [
        {
          "internalType": "uint8",
          "name": "",
          "type": "uint8"
        }
      ],
      "stateMutability": "view",
      "type": "function"
    },
    {
      "inputs": [],
      "name": "name",
      "outputs": [
        {
          "internalType": "string",
          "name": "",
          "type": "string"
        }
      ],
      "stateMutability": "view",
      "type": "function"
    },
    {
      "inputs": [],
      "name": "symbol",
      "outputs": [
        {
          "internalType": "string",
          "name": "",
          "type": "string"
        }
      ],
      "stateMutability": "view",
      "type": "function"
    },
    {
      "stateMutability": "payable",
      "type": "receive"
    },
    {
      "inputs": [],
      "name": "deposit",
      "outputs": [],
      "stateMutability": "payable",
      "type": "function"
    },
    {
      "inputs": [
        {
          "internalType": "uint256",
          "name": "wad",
          "type": "uint256"
        }
      ],
      "name": "withdraw",
      "outputs": [],
      "stateMutability": "payable",
      "type": "function"
    },
    {
      "inputs": [
        {
          "internalType": "address",
          "name": "guy",
          "type": "address"
        },
        {
          "internalType": "uint256",
          "name": "wad",
          "type": "uint256"
        }
      ],
      "name": "approve",
      "outputs": [
        {
          "internalType": "bool",
          "name": "",
          "type": "bool"
        }
      ],
      "stateMutability": "nonpayable",
      "type": "function"
    }
  ],
  "bytecode": "0x60806040526040518060400160405280600b81526020017f5772617070656420424e420000000000000000000000000000000000000000008152506000908051906020019061004f9291906100ca565b506040518060400160405280600481526020017f57424e42000000000000000000000000000000000000000000000000000000008152506001908051906020019061009b9291906100ca565b506012600260006101000a81548160ff021916908360ff1602179055503480156100c457600080fd5b506101ce565b8280546100d69061016d565b90600052602060002090601f0160209004810192826100f8576000855561013f565b82601f1061011157805160ff191683800117855561013f565b8280016001018555821561013f579182015b8281111561013e578251825591602001919060010190610123565b5b50905061014c9190610150565b5090565b5b80821115610169576000816000905550600101610151565b5090565b6000600282049050600182168061018557607f821691505b602082108114156101995761019861019f565b5b50919050565b7f4e487b7100000000000000000000000000000000000000000000000000000000600052602260045260246000fd5b61099a806101dd6000396000f3fe60806040526004361061007f5760003560e01c806370a082311161004e57806370a082311461014257806395d89b411461017f578063d0e30db0146101aa578063dd62ed3e146101b45761008e565b806306fdde0314610093578063095ea7b3146100be5780632e1a7d4d146100fb578063313ce567146101175761008e565b3661008e5761008c6101f1565b005b600080fd5b34801561009f57600080fd5b506100a8610297565b6040516100b5919061070f565b60405180910390f35b3480156100ca57600080fd5b506100e560048036038101906100e09190610629565b610325565b6040516100f291906106f4565b60405180910390f35b61011560048036038101906101109190610665565b610417565b005b34801561012357600080fd5b5061012c6104bc565b604051610139919061074c565b60405180910390f35b34801561014e57600080fd5b50610169600480360381019061016491906105c4565b6104cf565b6040516101769190610731565b60405180910390f35b34801561018b57600080fd5b506101946104e7565b6040516101a1919061070f565b60405180910390f35b6101b26101f1565b005b3480156101c057600080fd5b506101db60048036038101906101d691906105ed565b610575565b6040516101e89190610731565b60405180910390f35b34600360003373ffffffffffffffffffffffffffffffffffffffff1673ffffffffffffffffffffffffffffffffffffffff16815260200190815260200160002060008282546102409190610783565b925050819055503373ffffffffffffffffffffffffffffffffffffffff167fe1fffcc4923d04b559f4d29a8bfc6cda04eb5b0d3c460751c2402c5c5cc9109c3460405161028d9190610731565b60405180910390a2565b600080546102a490610895565b80601f01602080910402602001604051908101604052809291908181526020018280546102d090610895565b801561031d5780601f106102f25761010080835404028352916020019161031d565b820191906000526020600020905b81548152906001019060200180831161030057829003601f168201915b505050505081565b600081600460003373ffffffffffffffffffffffffffffffffffffffff1673ffffffffffffffffffffffffffffffffffffffff16815260200190815260200160002060008573ffffffffffffffffffffffffffffffffffffffff1673ffffffffffffffffffffffffffffffffffffffff168152602001908152602001600020819055508273ffffffffffffffffffffffffffffffffffffffff163373ffffffffffffffffffffffffffffffffffffffff167f8c5be1e5ebec7d5bd14f71427d1e84f3dd0314c0f7b2291e5b200ac8c7c3b925846040516104059190610731565b60405180910390a36001905092915050565b80600360003373ffffffffffffffffffffffffffffffffffffffff1673ffffffffffffffffffffffffffffffffffffffff16815260200190815260200160002054101561046357600080fd5b80600360003373ffffffffffffffffffffffffffffffffffffffff1673ffffffffffffffffffffffffffffffffffffffff16815260200190815260200160002060008282546104b291906107d9565b9250508190555050565b600260009054906101000a900460ff1681565b60036020528060005260406000206000915090505481565b600180546104f490610895565b80601f016020809104026020016040519081016040528092919081815260200182805461052090610895565b801561056d5780601f106105425761010080835404028352916020019161056d565b820191906000526020600020905b81548152906001019060200180831161055057829003601f168201915b505050505081565b6004602052816000526040600020602052806000526040600020600091509150505481565b6000813590506105a981610936565b92915050565b6000813590506105be8161094d565b92915050565b6000602082840312156105d657600080fd5b60006105e48482850161059a565b91505092915050565b6000806040838503121561060057600080fd5b600061060e8582860161059a565b925050602061061f8582860161059a565b9150509250929050565b6000806040838503121561063c57600080fd5b600061064a8582860161059a565b925050602061065b858286016105af565b9150509250929050565b60006020828403121561067757600080fd5b6000610685848285016105af565b91505092915050565b6106978161081f565b82525050565b60006106a882610767565b6106b28185610772565b93506106c2818560208601610862565b6106cb81610925565b840191505092915050565b6106df8161084b565b82525050565b6106ee81610855565b82525050565b6000602082019050610709600083018461068e565b92915050565b60006020820190508181036000830152610729818461069d565b905092915050565b600060208201905061074660008301846106d6565b92915050565b600060208201905061076160008301846106e5565b92915050565b600081519050919050565b600082825260208201905092915050565b600061078e8261084b565b91506107998361084b565b9250827fffffffffffffffffffffffffffffffffffffffffffffffffffffffffffffffff038211156107ce576107cd6108c7565b5b828201905092915050565b60006107e48261084b565b91506107ef8361084b565b925082821015610802576108016108c7565b5b828203905092915050565b60006108188261082b565b9050919050565b60008115159050919050565b600073ffffffffffffffffffffffffffffffffffffffff82169050919050565b6000819050919050565b600060ff82169050919050565b60005b83811015610880578082015181840152602081019050610865565b8381111561088f576000848401525b50505050565b600060028204905060018216806108ad57607f821691505b602082108114156108c1576108c06108f6565b5b50919050565b7f4e487b7100000000000000000000000000000000000000000000000000000000600052601160045260246000fd5b7f4e487b7100000000000000000000000000000000000000000000000000000000600052602260045260246000fd5b6000601f19601f8301169050919050565b61093f8161080d565b811461094a57600080fd5b50565b6109568161084b565b811461096157600080fd5b5056fea2646970667358221220413a2d1e7d6066ec8bffb68a502a7762393e0cabc1ca8afecf3bd3ddb0062bd564736f6c63430008000033",
  "immutableReferences": {},
  "source": "/**\n *Submitted for verification at BscScan.com on 2020-09-03\n*/\n\n/**\n *Submitted for verification at Bscscan.com on 2020-09-03\n*/\n\npragma solidity ^0.8.0;\n\ncontract WBNB {\n    string public name     = \"Wrapped BNB\";\n    string public symbol   = \"WBNB\";\n    uint8  public decimals = 18;\n\n    event  Approval(address indexed src, address indexed guy, uint wad);\n    event  Transfer(address indexed src, address indexed dst, uint wad);\n    event  Deposit(address indexed dst, uint wad);\n    event  Withdrawal(address indexed src, uint wad);\n\n    mapping (address => uint)                       public  balanceOf;\n    mapping (address => mapping (address => uint))  public  allowance;\n\n    receive() external payable {\n        deposit();\n    }\n    function deposit() public payable {\n        balanceOf[msg.sender] += msg.value;\n        emit Deposit(msg.sender, msg.value);\n    }\n    function withdraw(uint wad) public payable {\n        require(balanceOf[msg.sender] >= wad);\n        balanceOf[msg.sender] -= wad;\n    }\n\n    function approve(address guy, uint wad) public returns (bool) {\n        allowance[msg.sender][guy] = wad;\n        emit Approval(msg.sender, guy, wad);\n        return true;\n    }\n\n}\n",
  "sourcePath": "/home/worker/swapper/eattheblocks/screencast/325-create-pool-pancakeswap/contracts/Token1.sol",
  "compiler": {
    "name": "solc",
    "version": "0.8.0+commit.c7dfd78e.Emscripten.clang"
  },
  "schemaVersion": "3.4.2",
  "updatedAt": "2021-08-11T20:58:30.398Z",
  "devdoc": {
    "kind": "dev",
    "methods": {},
    "version": 1
  },
  "userdoc": {
    "kind": "user",
    "methods": {},
    "version": 1
  }
}